:1000000045C000004BC0000049C0000047C00000D0
:1000100045C0000043C0000041C000003FC00000D8
:100020003DC000003BC0000039C0000037C00000E8
:1000300035C0000033C0000031C000002FC00000F8
:100040002DC000002BC0000029C0000027C0000008
:1000500025C0000023C0000021C000001FC0000018
:100060001DC000001BC0000019C0000017C0000028
:1000700015C0000013C0000011C000000FC0000038
:100080000DC000000BC0000009C0000011241FBEFD
:10009000CFEFD0E1DEBFCDBF80D085C0B1CF8AEA3F
:1000A0008FBD83E18EBD82E880938B008EE18093CB
:1000B0008A0087E893E197BD86BD90938100809385
:1000C000800087E791E09BBD8ABD99BD88BD909374
:1000D00079008093780090938700809386001DBC00
:1000E0001CBC1092890010928800089510929B0009
:1000F00088E180939A0086E080939D00109298009A
:1001000088E08093990008958FEF87BB18BA82B971
:1001100013B884BB15BAC3DFE9DF78940895EBE91F
:10012000F0E080818823ECF780919C0008950F9384
:100130001F93CF93DF938C01EC01F1DF8A3019F02C
:10014000EEDF8993FACFF8011082DF91CF911F91F2
:100150000F910895CF93DF93CDB7DEB7C059D1404B
:100160000FB6F894DEBF0FBECDBFCE010196DFDF24
:1001700089818A3041F0CE0103960296FC013297C4
:1001800020812A30D1F7C057DE4F0FB6F894DEBF7A
:100190000FBECDBFDF91CF910895B6DFC0DF8335AD
:0A01A000E9F7D8DFFBCFF894FFCF9A
:00000001FF
